:020000040000FA
:100000000AEF10F0F76A140FF66E000EF7220900DF
:10001000F5501200616464723A2030780000F76A8B
:100020002E0FF66E000EF7220900F5501200206424
:100030006174613A203078253032780D0A00F76A11
:100040004E0FF66E000EF7220900F55012002064E4
:100050006174613A20307800F76A680FF66E000E1E
:10006000F7220900F55012000D0A20656570726FC5
:100070006D2064617461207772697474656E00002C
:10008000F76A900FF66E000EF7220900F550120085
:100090000D0A72626620254C6420627974657320B3
:1000A00072656365697665640D0A0000F76ABC0FC6
:1000B000F66E000EF7220900F550120053746174B9
:1000C00075733D3078253032780D0A00F76ADC0F01
:1000D000F66E000EF7220900F5501200466C6173AF
:1000E0006820496E6974206661696C65640D0A0058
:1000F000F76A000FF66E010EF7220900F5501200A4
:10010000466C61736820496E6974204F4B0D0A007C
:10011000F76A200FF66E010EF7220900F550120063
:10012000416464726573733A20307800F76A3C0F5B
:10013000F66E010EF7220900F5501200466C61734D
:1001400068207465737420777269746520646F6EBB
:10015000650D0A00F76A640FF66E010EF7220900BA
:10016000F5501200466C61736820657261736520FA
:10017000646F6E650D0A0000F76A880FF66E010E57
:10018000F7220900F5501200466C61736820746F05
:10019000206670676120646F6E650D0A0000F76A63
:1001A000AE0FF66E010EF7220900F55012006E6FC9
:1001B000206164647265737320696E206565707276
:1001C0006F6D0D0A0000F76AD60FF66E010EF7226A
:1001D0000900F5501200454550524F4D20506F69AF
:1001E0006E7465723A200000F76AF80FF66E010E21
:1001F000F7220900F5501200526573657420646F90
:100200006E650D0A0000F76A160FF66E020EF722F1
:100210000900F55012004272696768746E65737365
:100220002025253A2000F76A360FF66E020EF722D7
:100230000900F55012000D0A5461626F6F7420318D
:100240002E300D0A0000F76A560FF66E020EF722E6
:100250000900F55012003F53686F772068656C7095
:10026000206D656E750D0A00F76A780FF66E020E46
:10027000F7220900F5501200562F7653657420744A
:100280006F20686967682F6C6F7720766572626F80
:10029000736974790D0A0000F76AA80FF66E020EF2
:1002A000F7220900F55012004C2F6C5475726E2025
:1002B00074657374204C4544204F4E2F4F46460DB5
:1002C0000A00F76AD20FF66E020EF7220900F55007
:1002D0001200426E6E536574204261636B6C6967F5
:1002E0006874204C6576656C20746F206E6E2525D1
:1002F0000D0A0000F76A040FF66E030EF7220900DC
:10030000F55012005555706C6F616420465047419E
:10031000204669726D776172650D0A00F76A2C0FCD
:10032000F66E030EF7220900F55012007E53797322
:1003300074656D2072657365740D0A00F76A4C0F61
:10034000F66E030EF7220900F55012007261615239
:1003500065616420454550524F4D2066726F6D2097
:10036000616120616464726573730D0A0000F76A4D
:100370007E0FF66E030EF7220900F550120077612A
:1003800061646420577269746520746F204545501C
:10039000524F4D2061646472657373206161206106
:1003A0006E6420646174612064640D0A0000F76A61
:1003B000BE0FF66E030EF7220900F55012005252DE
:1003C00065616420323536206279746520626C6F15
:1003D000636B0D0A0000F76AE60FF66E030EF72254
:1003E0000900F5501200575772697465203235368E
:1003F000206279746520626C6F636B0D0A00F76A86
:100400000E0FF66E040EF7220900F5501200454556
:100410007261736520536563746F720D0A00F76A29
:100420002E0FF66E040EF7220900F55012005352FB
:1004300065616420466C61736820537461747573E0
:100440000D0A0000F76A540FF66E040EF722090039
:10045000F55012002B2F2D556E6C6F636B2F4C6F68
:10046000636B20666C61736820666F7220777269B7
:1004700074696E670D0A0000F76A880FF66E040E45
:10048000F7220900F5501200545472616E736665CC
:1004900072207262662046696C6520230D0A000096
:1004A000F76AB00FF66E040EF7220900F55012003D
:1004B0000D0A3E200000EA6A350EE96EEF500DE0AD
:1004C000060E016E006A002EFED7012EFBD77B0EB2
:1004D000006E002EFED7EF2EF3D7000C8A96FA0E90
:1004E000356EE9DF8A860B520CE00F6A0F507CDE16
:1004F0000F2A006E00509EA8FED7AD6E0C0E0F5C4A
:10050000F5E1000CC69A300EC66E400EC76EC69856
:10051000C79E8B80B4EF02F08B90000CC69E2FC15B
:10052000C9FFC7A0FED7C9CF01F0000C2EC12FF123
:10053000F5DF000CFF0E01012F6F0001EFDF01500E
:10054000000C8B80000CE8DF050E01012E6F00010E
:10055000EDDFF0DF01C023F1F4DF010123C101F081
:100560000001000C0E80CED7EEDF01501C0802E126
:100570000E9004D00D500D06000AF5E10B521BE061
:100580000EA00DD00F6A0F50A1DD0F2A006E005093
:100590009EA8FED7AD6E130E0F5CF5E10CD00F6A6E
:1005A0000F50A6DD0F2A006E00509EA8FED7AD6E3C
:1005B0000F0E0F5CF5E1000E0EB0010E016E64EF40
:1005C00010F03650386E080E376E38A0809438B070
:1005D0008084808238328092372EF7D7000C8A824E
:1005E0008996320E356E67DF8986140E356E63DFAD
:1005F00093DF030E01012E6F000198DF1050102AC7
:100600001A6EF2CF1BF0F29EA96EA69CA69EA68043
:10061000A8501BBEF28E1B6EE8CF2EF187DF105064
:10062000102A1A6EF2CF1BF0F29EA96EA69CA69E0F
:10063000A680A8501BBEF28E1B6EE8CF2EF176DF8F
:100640001050102A1A6EF2CF1BF0F29EA96EA69CD3
:10065000A69EA680A8501BBEF28E1B6EE8CF2EF180
:1006600065DF1050102AF2CF1BF0F29EA96EA69CF7
:10067000A69EA680A8501BBEF28E1B6E1050102A9C
:10068000F2CF1DF0F29EA96EA69CA69EA680A85051
:100690001DBEF28E1D6E1050102AF2CF1FF0F29E7A
:1006A000A96EA69CA69EA680A8501FBEF28E196AAF
:1006B0001BC018F01DC017F0166E156A146A136A75
:1006C000126A1550195C1BE30BE11450185C17E318
:1006D00007E11350175C13E303E11650125C0FE2BD
:1006E00029DF01C011F011C036F06BDF010E1226B8
:1006F000D8B0132AD8B4142AD8B4152AE2D721DFE7
:100700008A920B520CE01A6A1A5036DD1A2A006ED1
:1007100000509EA8FED7AD6E140E1A5CF5E1000CD9
:10072000F2CF0FF0F29E0DC0A9FFA69CA69EA68058
:10073000A8500FBEF28E0E6E0E3C0FD00B520CE086
:100740000F6A0F502CDD0F2A006E00509EA8FED7B6
:10075000AD6E160E0F5CF5E103D00EC010F03FDF5A
:100760006FEF10F00D0E9EA8FED7AD6E0A0E9EA87C
:10077000FED7AD6E0F6A0F5056DD0F2A006E005087
:100780009EA8FED7AD6E0E0E0F5CF5E13F0E9EA843
:10079000FED7AD6E050E0F6E200E9EA8FED7AD6E75
:1007A0000F2EFAD7010E106E10504DDD102A006E7C
:1007B00000509EA8FED7AD6E110E105CF5E1560EEE
:1007C0009EA8FED7AD6E2F0E9EA8FED7AD6E760EFC
:1007D0009EA8FED7AD6E030E0F6E200E9EA8FED70C
:1007E000AD6E0F2EFAD7030E106E10503DDD102A9D
:1007F000006E00509EA8FED7AD6E1E0E105CF5E197
:100800004C0E9EA8FED7AD6E2F0E9EA8FED7AD6EE5
:100810006C0E9EA8FED7AD6E030E0F6E200E9EA826
:10082000FED7AD6E0F2EFAD7030E106E105034DDCA
:10083000102A006E00509EA8FED7AD6E190E105CF7
:10084000F5E1420E9EA8FED7AD6E6E0E9EA8FED7B5
:10085000AD6E6E0E9EA8FED7AD6E030E0F6E200E0F
:100860009EA8FED7AD6E0F2EFAD7030E106E105055
:1008700028DD102A006E00509EA8FED7AD6E1C0E1B
:10088000105CF5E1250E9EA8FED7AD6E0D0E9EA85C
:10089000FED7AD6E0A0E9EA8FED7AD6E550E9EA871
:1008A000FED7AD6E050E0F6E200E9EA8FED7AD6E64
:1008B0000F2EFAD7010E106E10501CDD102A006E9C
:1008C00000509EA8FED7AD6E170E105CF5E17E0EAF
:1008D0009EA8FED7AD6E050E0F6E200E9EA8FED709
:1008E000AD6E0F2EFAD7010E106E105017DD102AC4
:1008F000006E00509EA8FED7AD6E0F0E105CF5E1A5
:10090000720E9EA8FED7AD6E610E9EA8FED7AD6E8C
:10091000610E9EA8FED7AD6E030E0F6E200E9EA830
:10092000FED7AD6E0F2EFAD7030E106E105006DDF7
:10093000102A006E00509EA8FED7AD6E200E105CEF
:10094000F5E10F6A0F5013DD0F2A006E00509EA8CC
:10095000FED7AD6E2E0E0F5CF5E1520E9EA8FED7AF
:10096000AD6E050E0F6E200E9EA8FED7AD6E0F2E3B
:10097000FAD7010E106E10501ADD102A006E0050CA
:100980009EA8FED7AD6E160E105CF5E1570E9EA820
:10099000FED7AD6E050E0F6E200E9EA8FED7AD6E73
:1009A0000F2EFAD7010E106E105015DD102A006EB2
:1009B00000509EA8FED7AD6E170E105CF5E1450EF7
:1009C0009EA8FED7AD6E050E0F6E200E9EA8FED718
:1009D000AD6E0F2EFAD7010E106E105010DD102ADA
:1009E000006E00509EA8FED7AD6E0F0E105CF5E1B4
:1009F000530E9EA8FED7AD6E050E0F6E200E9EA85C
:100A0000FED7AD6E0F2EFAD7010E106E105007DD17
:100A1000102A006E00509EA8FED7AD6E140E105C1A
:100A2000F5E12B0E9EA8FED7AD6E2F0E9EA8FED729
:100A3000AD6E2D0E9EA8FED7AD6E030E0F6E200E6E
:100A40009EA8FED7AD6E0F2EFAD7030E106E105073
:100A5000F9DC102A006E00509EA8FED7AD6E220E63
:100A6000105CF5E1540E9EA8FED7AD6E050E0F6E1C
:100A7000200E9EA8FED7AD6E0F2EFAD7010E106E77
:100A80001050FADC102A006E00509EA8FED7AD6E02
:100A9000160E105CF5E1000C2550D8B471D0006E34
:100AA0002950D8B46DD0002604E3810E002668E2F8
:100AB00004D07F0E005E64E363E026C02DF02A5070
:100AC0002D1A268E2A8E28502C02F4CF2FF0275074
:100AD0002B02F4CF03F0F3CF2EF02C02F3502F268D
:100AE000F4502E22000E032228502B02F3502F2602
:100AF000F4502E22000E026A0322022226502C02FB
:100B0000F3502E26F4500322000E022226502B0210
:100B1000F3500326F4500222000E016A01222850ED
:100B20002A02F3502E26F4500322000E0222012244
:100B300027502A02F3500326F4500222000E01220D
:100B400026502A02F3500226F4500122002A01BE48
:100B500005D02E360336023601360006000E2EAEC4
:100B60000AD0032A02220122015005E1025003E1CA
:100B7000035001E1002A2DBE018E2DAE019E04D04E
:100B8000006A016A026A036A000C8E0E006E2AC0B7
:100B900001F029C002F0036A015209E102C001F02C
:100BA000026A080E005E015202E1006A08D0D89085
:100BB00001BE04D0023601360006F9D7019E000CB2
:100BC000800ED8B2321A376A386A2EC036F03250E8
:100BD000361A2D50D8B4DCD0356E006E3150D8B4F2
:100BE000E0D0355ED8B481D03DE332C03BF03B8EDF
:100BF00033C03AF034C039F0386AD8903B323A32D8
:100C000039323832352EF8D736AE03D03780DDD0C2
:100C1000379035903788EA6A300EE96EE9D0379818
:100C200036BE0AD035A013D03B323A323932383290
:100C3000002AD8B4C5D00BD03BBE0CD0D8903836E3
:100C400039363A363B360006D8B4BAD0F5D7378CA9
:100C50006BD0379C2EC036F02EAE02D03B8EA9D082
:100C60003B9EA7D031C035F031C000F02D50355E2D
:100C70002EC03BF03B8E2FC03AF030C039F0386ABE
:100C8000D8903B323A3239323832352EF8D736AE38
:100C900003D037829AD037923590378AEA6A340E79
:100CA000E96EA6D0379A36BE0AD035A013D03B32B3
:100CB0003A3239323832002AD8B482D00BD03BBE17
:100CC0000CD0D890383639363A363B360006D8B490
:100CD00077D0F5D7378E28D0379E32C036F032AE77
:100CE00002D03B8E66D03B9E64D032C03BF03B8E40
:100CF00033C03AF034C039F036AE04D03B9E37846E
:100D000064D03794386A3590EA6A300EE96E70D054
:100D100036BE1CD02EC036F035A006D03B323A325B
:100D200039323832002A4CE038AE0BD0392A09E18A
:100D30003A2A07E13B2A05E13B323A323932002AAE
:100D40003FE037BC86D737BEC7D71CD0800E3B1AD2
:100D50003BAE04D03AD032C036F00AD02EC036F0C6
:100D60003B5206E13A5204E1395202E1006A21D0D5
:100D70003BBE08D0D890383639363A363B36002E4E
:100D8000F7D71ED036AE02D03B8E13D03B9E11D08B
:100D900031C000F032C03BF033C03AF034C039F01B
:100DA00008D02DC000F02EC03BF02FC03AF030C06C
:100DB00039F03BC001F03AC002F039C003F034D042
:100DC000006A016A026A036A2FD0386A391E3A1E25
:100DD0003B1E381E382A05E1392A03E13A2A01E18F
:100DE0003B2A37B015D737B256D737B48AD7B3D7DF
:100DF000EF50392605E33A2A03E13B2AD8B435807F
:100E0000ED52EF503A2603E33B2AD8B43580ED5239
:100E1000EF50EFBE01D0800A3B26D8B0358037B8FE
:100E2000FED637BA3FD774D7000C2650D8B4A5D019
:100E3000326E2A50D8B4A1D0325E05E37F0E32263E
:100E4000D8B09BD006D0810E325ED8A096D0D8B450
:100E500094D032C000F0016A026A036A316A27C086
:100E600030F0308E28C02FF029C02EF0190E326ECF
:100E70002D502E5E0DE2010E2F5E0AE2305E08E27A
:100E8000315E06E2312A302A2F2A2D502E2628D014
:100E90002C502F5E12E2010E305E0FE2315E0DE249
:100EA000312A302A2C502F262D502E2619E32F2A96
:100EB00017E1302A15E1312A13D02B508009305E1A
:100EC0000EE2010E315E0BE2312A2B5080093026F2
:100ED0002C502F26E9E3302AE7E1312AE5D70380B9
:100EE000322E01D00BD0D8902E362F3630363136F8
:100EF000D8900336023601363336BAD733A006D03F
:100F0000D890013202320332333202D0000635E08B
:100F100033BE1ED0D8902E362F36303631362D5077
:100F20002E5E07E2010E2F5E04E2305E02E2315EC9
:100F30001AE32C502F5E05E2010E305E02E2315EB4
:100F400012E32B508009305E03E2010E315E0BE3A9
:100F5000032A09E1022A07E1012A05E1002A0DE03E
:100F600001320232033227C032F02B50321A32AE35
:100F700002D0018E06D0019E04D0006A016A026A86
:100F8000036A000C7F0E1A6E1B6A1C6A1D6A1E6AB9
:100F90001F6A206A216A226A246A2450242A036A6A
:100FA0001824E96E19500320EA6EEFCF23F0235086
:100FB0002F0803E2235039080AE223502B0807E0E8
:100FC00023502D0804E023502E08D8A4DFD023504E
:100FD0002D080CE1010E226E2450242A036A1824E5
:100FE000E96E19500320EA6EEFCF23F023502B084F
:100FF0000AE12450242A036A1824E96E19500320B8
:10100000EA6EEFCF23F023502F085BE2235039081C
:1010100058E3286A276A200E266E820E256E21C0AC
:101020002CF020C02BF01FC02AF01EC029F034DDA8
:1010300000C025F001C026F002C027F003C028F050
:101040002A6A23C029F0A1DDD89228C030F027C039
:101050002FF026C02EF025C02DF003C034F002C0C2
:1010600033F001C032F000C031F0AADD00C029F039
:1010700001C02AF002C02BF003C02CF0D88203C0BC
:1010800030F002C02FF001C02EF000C02DF0346A05
:10109000336A400E326E840E316E92DD03C021F051
:1010A00002C020F001C01FF000C01EF02450242A0E
:1010B000036A1824E96E19500320EA6EEFCF23F07B
:1010C000A2D723502E0862E12450242A036A182450
:1010D000E96E19500320EA6EEFCF23F023502F085A
:1010E00055E22350390852E31DC028F01CC027F0F8
:1010F0001BC026F01AC025F02C6A2B6A200E2A6E1F
:10110000820E296EC9DC03C01DF002C01CF001C0B4
:101110001BF000C01AF0300E235C2A6A296E35DD00
:1011200003C029F002C028F001C027F000C026F05B
:101130001DC02DF01CC02CF01BC02BF01AC02AF0D3
:1011400074DED89221C030F020C02FF01FC02EF0E6
:101150001EC02DF003C034F002C033F001C032F0E5
:1011600000C031F02DDD03C021F002C020F001C02D
:101170001FF000C01EF02450242A036A1824E96ED0
:1011800019500320EA6EEFCF23F0A8D7222C17D0F6
:10119000286A276A800E266E7F0E256E21C02CF0ED
:1011A00020C02BF01FC02AF01EC029F075DC03C040
:1011B00021F002C020F001C01FF000C01EF01EC0D0
:1011C00000F01FC001F020C002F021C003F036EF94
:1011D00009F08E0E006E1C50005E1DC002F01EC095
:1011E00001F0028E005209E0D890025202E1015251
:1011F00004E002320132002EF7D71DAE05D0011EE9
:10120000021E012AD8B4022A6DEF09F00B5219E030
:10121000186A185003EC01F0182A006E00509EA8BE
:10122000FED7AD6E0B0E185CF4E1250E9EA8FED71E
:10123000AD6E3A0E9EA8FED7AD6E200E9EA8FED7CC
:10124000AD6E9EAAFED7AECF14F014509EA8FED766
:10125000AD6E9EAAFED7AECF15F015509EA8FED754
:10126000AD6E166A196A140E186E8CD603C013F090
:1012700002C012F001C011F000C010F013C029F03C
:1012800012C028F011C027F010C026F02D6A2C6A79
:10129000480E2B6E850E2A6EC8DD00C018F001C006
:1012A00019F002C01AF003C01BF003C028F002C0FE
:1012B00027F001C026F000C025F02C6A2B6A2A6AAC
:1012C000850E296E4CEC05F003C01FF002C01EF025
:1012D00001C01DF000C01CF07CD701C00FF00FC092
:1012E000BEFFBAEF0FF03D6A3B6A0A0E3C6E3A6AE7
:1012F000396A386A376A3550361005E1006A016A82
:10130000026A036A2CD13D503D2A036A3524E96EF6
:1013100036500320EA6EEFCF3EF03E502D080DE12F
:10132000010E3B6E3D503D2A036A3524E96E36506E
:101330000320EA6EEFCF3EF00DD03E502B080AE1BD
:101340003D503D2A036A3524E96E36500320EA6E8B
:10135000EFCF3EF03E502F08D8B0E9D03E503908CC
:10136000D8A0E5D03E50300821E1036A3D50352435
:10137000E96E36500320EA6EEF5078080AE0036AFF
:101380003D503524E96E36500320EA6EEF50580880
:101390000DE1100E3C6E3D2A3D503D2A036A352476
:1013A000E96E36500320EA6EEFCF3EF03C500A085B
:1013B00040E13E502F083CE23E50390839E3D890D6
:1013C0003734406E3834416E3934426E3A34436EAD
:1013D0003734006E3834016E3934026E3A34036E9D
:1013E0000036013602360336003601360236033641
:1013F000F80E001600504024376E01504120386E20
:1014000002504220396E035043203A6E300E3E5C4B
:101410003726000E382239223A223D503D2A036AEF
:101420003524E96E36500320EA6EEFCF3EF0C1D787
:101430007ED03C501008D8A47AD03E50600806E216
:101440003E507A0803E33E50DF0B01D03E503E6E23
:101450003E502F0803E23E50390806E23E50400855
:1014600066E23E50460863E33E502F0827E23E50B6
:10147000390824E33734406E3834416E3934426ED3
:101480003A34436E40364136423643364036413672
:10149000423643364036413642364336F00E401629
:1014A000300E3E5C4024376E000E4120386E000E38
:1014B0004220396E000E43203A6E24D03734406EFD
:1014C0003834416E3934426E3A34436E40364136D8
:1014D0004236433640364136423643364036413650
:1014E00042364336F00E4016410E3E5C0A0F402451
:1014F000376E000E4120386E000E4220396E000E0D
:1015000043203A6E3D503D2A036A3524E96E365039
:101510000320EA6EEF503E6E600806E23E507A0805
:1015200003E33E50DF0B01D03E503E6E91D73C505E
:101530000A080DE13B2C0BD0371E381E391E3A1E0F
:10154000372AD8B4382AD8B4392AD8B43A2A37C076
:1015500000F038C001F039C002F03AC003F07FEF6C
:101560000BF0006A016A026A036A4A6A4B6A4C6AB3
:101570004D6A49504810471046102CE0200E4E6E20
:10158000D89042364336443645364A364B364C368A
:101590004D3649504D5C08E148504C5C05E14750E0
:1015A0004B5C02E146504A5C0FE346504A5E4750AE
:1015B000D8A0473C4B5E4850D8A0483C4C5E4950B0
:1015C000D8A0493C4D5ED88000360136023603363D
:1015D0004E2ED6D7EA6A4A0EE96E000CE9503A6EF2
:1015E00039AE0DD03A063A8A361E371E381E391EDD
:1015F000362AD8B4372AD8B4382AD8B4392A3B0E78
:10160000416E9A0E406ECA0E3F6E3E6A0A0E3C6EE6
:1016100039C045F038C044F037C043F036C042F01E
:1016200041C049F040C048F03FC047F03EC046F0DE
:1016300098DF0150EFCF36F0ECCF37F0ECCF38F039
:10164000ECCF39F000520FE13C50010A0CE03A5067
:101650000CE00F0B3C5C01E027E23ABE25D03ABC1F
:1016600004D0200E1CD0200E3A163AAA0AD03A9A7C
:1016700000C03AF02D0E9EA8FED7AD6E3AC000F025
:101680003A6A300E3AAA0BD03A9A00C03AF02D0EC0
:101690009EA8FED7AD6E3AC000F03A6A300E002622
:1016A00000509EA8FED7AD6E41C045F040C044F04A
:1016B0003FC043F03EC042F0496A486A476A0A0E9A
:1016C000466E4FDF03C041F002C040F001C03FF062
:1016D00000C03EF03C2E9CD7CBEF0BF0EA6A170E11
:1016E000E96EE906E92A9EAAFED7AECFEFFF0D0EFE
:1016F000EF5CF8E1EF6A366A170E356EF4D503C079
:1017000016F002C015F001C014F000C013F0899665
:101710000A0E356E5BEC02F08986126A116A106A55
:101720000F6A1250165C1DE30BE11150155C19E3B2
:1017300007E11050145C15E303E113500F5C11E254
:101740009EAAFED7AECF35F0AECF36F0E1EC02F078
:10175000010E0F26D8B0102AD8B4112AD8B4122AF4
:10176000E0D70B5227E0356A355040EC00F0352ABF
:10177000006E00509EA8FED7AD6E060E355CF4E1FB
:10178000410EE96E16C039F015C038F014C037F0BC
:1017900013C036F023D7090E366E365040EC00F0F9
:1017A000362A006E00509EA8FED7AD6E1A0E365C2B
:1017B000F4E104D0460E9EA8FED7AD6EC0EF0FF048
:1017C0009EAAFED7AECF1EF101011E519EA8FED7E4
:1017D000AD6E1E51390805E3300E1E5D016E0FD04F
:1017E0000ED01E51600806E21E517A0803E31E5116
:1017F000DF0B01D01E51BF0F0A0F016E00D0000198
:10180000000CDEDF0150100DF3CF1DF10001D8DF19
:10181000015001011D25016E0001000C010113BFE3
:1018200010D00F0E006E123900160A0E005C03E293
:10183000300E002602D01351002600509EA8FED77D
:10184000AD6E0F0E12170A0E125D02E2300E02D0BC
:10185000139F1351122712519EA8FED7AD6E00019F
:10186000000C0B5237E0106A105002EC00F0102A06
:10187000006E00509EA8FED7AD6E080E105CF4E11D
:10188000C0DFF2CF11F0F29E01C0A9FFA69CA69E78
:10189000A680A85011BEF28E0F6E106A10500FEC89
:1018A00000F0102A006E00509EA8FED7AD6E090E03
:1018B000105CF4E10FC012F1570E0101136F00012B
:1018C000ADDF0D0E9EA8FED7AD6E0A0E9EA8FED708
:1018D000AD6E24D096DFF2CF11F0F29E01C0A9FFC9
:1018E000A69CA69EA680A85011BEF28E0F6E300E4A
:1018F0009EA8FED7AD6E780E9EA8FED7AD6E0FC027
:1019000012F1570E0101136F000188DF0D0E9EA822
:10191000FED7AD6E0A0E9EA8FED7AD6EC2EF0FF0D9
:101920000B5247E0106A105002EC00F0102A006ED3
:1019300000509EA8FED7AD6E080E105CF4E161DF8A
:1019400001C00FF0106A10501FEC00F0102A006E5A
:1019500000509EA8FED7AD6E090E105CF4E151DF79
:1019600001C010F00FC0A9FF01C0A8FFA69CA69E51
:10197000A684F2CF00F0F29E0F01550EA76EAA0EBC
:10198000A76EA682A6B2FED7A6940050F212106AE5
:10199000105000012CEC00F0102A006E00509EA8A0
:1019A000FED7AD6E160E105CD8B402D00F01F0D782
:1019B00027D027DF01C00FF0200E9EA8FED7AD6E06
:1019C00020DF01C010F00FC0A9FF01C0A8FFA69C36
:1019D000A69EA684F2CF00F0F29E0F01550EA76ED0
:1019E000AA0EA76EA682A6B2FED7A6940050F21247
:1019F0000D0E9EA8FED7AD6E0A0E9EA8FED7AD6E48
:101A00000001C4EF0FF00101196B1951000188ECBE
:101A100000F00101192B006E00509EA8FED7AD6E9C
:101A20000B0E195DF2E10001ECDE01C019F1E9DEF7
:101A300001C01AF1E6DE01C01BF1E3DE19C118F1A5
:101A40001AC117F11BC116F101C015F10D0E9EA8A8
:101A5000FED7AD6E0A0E9EA8FED7AD6E15C100F082
:101A600016C101F017C102F018C103F0000C01010A
:101A7000226B216B2251205D1DE303E11F51215D8B
:101A800019E21D512125016E1E512221036E01C054
:101A900023F1246FFF0E2F6F00018EEC02F024C1A2
:101AA000EAFF23C1E9FF01C0EFFF0101212BD8B4F8
:101AB000222BE0D7000180EF0DF08CEC02F0030E3A
:101AC00001012E6F000196EC02F017C11DF117C144
:101AD0002EF196EC02F016C11DF116C12EF196EC16
:101AE00002F015C11DF115C12EF196EC02F01AC1DC
:101AF0001EF119C11DF11CC120F11BC11FF1B7D787
:101B0000A1EC02F09EEF0DF07EDF03C014F102C0E5
:101B100013F101C012F100C011F103C018F102C0AD
:101B200017F101C016F100C015F101011A6B0F0E7B
:101B3000196F010E1C6F1B6B0001BFD70101106BE9
:101B40000F6B1051000834E30F0E0F25E96E000EE5
:101B50001021EA6EEFCF11F1300E9EA8FED7AD6EC8
:101B6000780E9EA8FED7AD6E11C112F1570E136FFD
:101B7000000154DE200E9EA8FED7AD6E010E0101BD
:101B80000F25116F000E1021126F11510F0B006EF7
:101B9000036A0050031008E10D0E9EA8FED7AD6E3B
:101BA0000A0E9EA8FED7AD6E0F2BD8B4102BC9D746
:101BB0000001C6EF0FF08CEC02F0060E01012E6F53
:101BC000000196EC02F0A1EC02F0000CF4DF8CECCA
:101BD00002F0020E01012E6F000196EC02F02AC104
:101BE0002DF12AC12EF196EC02F029C12DF129C167
:101BF0002EF196EC02F028C12DF128C12EF196ECC1
:101C000002F02CC12EF196EC02F0A1EC02F052EFA2
:101C10000EF08CEC02F0040E01012E6F000196EC28
:101C200002F0A1EC02F0000C18C122F117C121F161
:101C300016C120F115C11FF101011E6B1D6B1E5154
:101C40001C5D3EE303E11B511D5D3AE222C103F03E
:101C500021C102F020C101F01FC100F0010E1F27B9
:101C6000D8B0202BD8B4212BD8B4222B03C026F116
:101C700002C025F101C024F100C023F119511D2536
:101C8000E96E1A511E21EA6EEFCF27F103C02BF146
:101C900002C02AF101C029F100C028F127C12CF1AE
:101CA000000194D7100E006E002EFED70000A3ECAA
:101CB00002F001B0FCD701011D2BD8B41E2BBFD7F9
:101CC0000001A7DF000C9DDD01C015F19ADD01C008
:101CD00016F197DD01C017F194DD15C112F116C19F
:101CE00011F117C110F101C00FF10101146B136B59
:101CF000145100080EE30F0E1325E96E000E142197
:101D0000EA6E9EAAFED7AECFEFFF132BD8B4142BEA
:101D1000EFD712C118F111C117F110C116F10FC19F
:101D200015F11A6B0F0E196F010E1C6F1B6B000162
:101D30007BDF2E0E9EA8FED7AD6EC8EF0FF063DEE0
:101D400003C012F102C011F101C010F100C00FF187
:101D50000101146B136B145100080CE30F0E1325D3
:101D6000E96E000E1421EA6E13C1EFFF132BD8B4F5
:101D7000142BF1D712C118F111C117F110C116F1CE
:101D80000FC115F11A6B0F0E196F010E1C6F1B6B33
:101D900000014ADF0B5212E00101156B15510001E1
:101DA00096EC00F00101152B006E00509EA8FED7A6
:101DB000AD6E170E155DF2E106D000012E0E9EA845
:101DC000FED7AD6E01010001CAEF0FF0F4DE8CEC1E
:101DD00002F0D80E01012E6F000196EC02F015C042
:101DE00017F015C02EF196EC02F014C017F014C0D5
:101DF0002EF196EC02F013C017F013C02EF196EC02
:101E000002F08B80A1EC02F004DF19EF0FF0FBDD94
:101E100003C012F002C011F001C010F000C00FF0BA
:101E200003C016F002C015F001C014F000C013F09A
:101E3000CDD70B520DE00F6A0F50AAEC00F00F2A1D
:101E4000006E00509EA8FED7AD6E120E0F5CF4E13E
:101E5000CCEF0FF0A3EC02F001C00FF0106A1050AD
:101E600056EC00F0102A006E00509EA8FED7AD6E12
:101E7000090E105CF4E10FC012F1570E0101136F4F
:101E80000001CCDC0D0E9EA8FED7AD6E0A0E9EA8FA
:101E9000FED7AD6ECEEF0FF08EDE8CEC02F0010EB1
:101EA00001012E6F000196EC02F00FC02EF196ECAE
:101EB00002F0A1EC02F0ADDE000C0F6AEDDFD0EF16
:101EC0000FF01C0E0F6EE8DFD2EF0FF00B520DE09B
:101ED0000F6A0F50E3EC00F00F2A006E00509EA82E
:101EE000FED7AD6E100E0F5CF4E18BDC01C00FF07D
:101EF00001C010F0EFEC02F0D4EF0FF00E503F0AEB
:101F000027E0690A28E0200A29E03A0A29E0200AA5
:101F100029E0590A29E0050A29E0720A29E03C0A69
:101F20002AE02B0A2BE0270A2CE0050A2CE0250AE0
:101F30002CE0050A2CE0360A2CE0240A2CE0160AD4
:101F40002CE0780A2CE0060A2CE0790A2CE02DD04F
:101F5000B2EC03F02CD0010E0B6E29D00B6A27D007
:101F60008A8225D08A9223D0898A21D0899A1FD04B
:101F700006EF09F01CD06EEC02F019D06EEF0BF0FA
:101F800016D06FD414D0CCD412D0BED510D09BD6DE
:101F90000ED0D5D60CD03BD70AD05CD708D08DD781
:101FA00006D08FD704D092D702D00E6A00D00E523E
:101FB00004E00E509EA8FED7AD6E9CEF10F081B0ED
:101FC00027D0C80E356E5BEC02F081B021D00C1E1C
:101FD0000C521DE0F2CF0DF0F29E040EA96EA69CED
:101FE000A69EA680A8500DBEF28EFF080DE0F2CF8F
:101FF0000DF0F29E040EA96EA69CA69EA680A85087
:102000000DBEF28EBE6E02D0400EBE6E01D0BE6A14
:10201000ABEF10F0F86AD09EEA6AE96AB886150E4E
:10202000AF6E000EB06EA60EAC6E900EAB6EC150D1
:10203000C00B0F09C16E070EB46E056A066AC15067
:10204000C00B0F09C16EC290B56A870ED56ECD6AFE
:10205000000E0509CA6E400ECB6EF10E926EF50EA3
:10206000936E920E946EF19E8A928B9489860C6A7E
:10207000B70EB1168B940C0EBD6EBE6A640E356E33
:102080005BEC02F0F2CF0DF0F29E020EA96EA69C60
:10209000A69EA680A8500DBEF28E0B6EF2CF0DF05C
:1020A000F29E010EA96EA69CA69EA680A8500DBE0B
:1020B000F28E010803E16EEC02F001D08A868A827A
:1020C000050E0D6EB2EF02F0020E0D6EC80E356EEB
:1020D0005BEC02F00D2EFAD70D6A90EF03F0F2CF11
:1020E0000DF0F29E030EA96EA69CA69EA680A85097
:1020F0000DBEF28EFF080DE0F2CF0DF0F29E030E42
:10210000A96EA69CA69EA680A8500DBEF28EBE6E9D
:1021100001D0BE6A8A920B5202E0B2EC03F03E0E8E
:102120009EA8FED7AD6E9EAA15D09EAAFED7AECFB2
:102130000DF0AECF0EF0E2D60D6A0D5050EC02F06D
:102140000D2A006E00509EA8FED7AD6E040E0D5CE9
:0A215000F4E101D034D7E7D7030013
:020000040030CA
:0E0000000002191E008381000FC00FE00F40A8
:00000001FF
;PIC18F2520
